{
  "_format": "hh-sol-artifact-1",
  "contractName": "Settlement",
  "sourceName": "contracts/Settlement.sol",
  "abi": [
    {
      "inputs": [
        {
          "internalType": "address",
          "name": "initialOwner",
          "type": "address"
        },
        {
          "internalType": "contract MockERC20",
          "name": "_tokenA",
          "type": "address"
        },
        {
          "internalType": "contract MockERC20",
          "name": "_tokenB",
          "type": "address"
        }
      ],
      "stateMutability": "nonpayable",
      "type": "constructor"
    },
    {
      "inputs": [
        {
          "internalType": "address",
          "name": "owner",
          "type": "address"
        }
      ],
      "name": "OwnableInvalidOwner",
      "type": "error"
    },
    {
      "inputs": [
        {
          "internalType": "address",
          "name": "account",
          "type": "address"
        }
      ],
      "name": "OwnableUnauthorizedAccount",
      "type": "error"
    },
    {
      "anonymous": false,
      "inputs": [
        {
          "indexed": true,
          "internalType": "address",
          "name": "previousOwner",
          "type": "address"
        },
        {
          "indexed": true,
          "internalType": "address",
          "name": "newOwner",
          "type": "address"
        }
      ],
      "name": "OwnershipTransferred",
      "type": "event"
    },
    {
      "anonymous": false,
      "inputs": [
        {
          "indexed": false,
          "internalType": "string",
          "name": "tradeId",
          "type": "string"
        },
        {
          "indexed": true,
          "internalType": "address",
          "name": "buyer",
          "type": "address"
        },
        {
          "indexed": true,
          "internalType": "address",
          "name": "seller",
          "type": "address"
        },
        {
          "indexed": false,
          "internalType": "uint256",
          "name": "price",
          "type": "uint256"
        },
        {
          "indexed": false,
          "internalType": "uint256",
          "name": "amount",
          "type": "uint256"
        }
      ],
      "name": "TradeSettled",
      "type": "event"
    },
    {
      "inputs": [],
      "name": "owner",
      "outputs": [
        {
          "internalType": "address",
          "name": "",
          "type": "address"
        }
      ],
      "stateMutability": "view",
      "type": "function"
    },
    {
      "inputs": [],
      "name": "renounceOwnership",
      "outputs": [],
      "stateMutability": "nonpayable",
      "type": "function"
    },
    {
      "inputs": [
        {
          "internalType": "string",
          "name": "tradeId",
          "type": "string"
        },
        {
          "internalType": "address",
          "name": "buyer",
          "type": "address"
        },
        {
          "internalType": "address",
          "name": "seller",
          "type": "address"
        },
        {
          "internalType": "uint256",
          "name": "price",
          "type": "uint256"
        },
        {
          "internalType": "uint256",
          "name": "amount",
          "type": "uint256"
        }
      ],
      "name": "settleTrade",
      "outputs": [],
      "stateMutability": "nonpayable",
      "type": "function"
    },
    {
      "inputs": [],
      "name": "tokenA",
      "outputs": [
        {
          "internalType": "contract MockERC20",
          "name": "",
          "type": "address"
        }
      ],
      "stateMutability": "view",
      "type": "function"
    },
    {
      "inputs": [],
      "name": "tokenB",
      "outputs": [
        {
          "internalType": "contract MockERC20",
          "name": "",
          "type": "address"
        }
      ],
      "stateMutability": "view",
      "type": "function"
    },
    {
      "inputs": [
        {
          "internalType": "address",
          "name": "newOwner",
          "type": "address"
        }
      ],
      "name": "transferOwnership",
      "outputs": [],
      "stateMutability": "nonpayable",
      "type": "function"
    }
  ],
  "bytecode": "0x60806040523480156200001157600080fd5b5060405162001032380380620010328339818101604052810190620000379190620002bd565b82600073ffffffffffffffffffffffffffffffffffffffff168173ffffffffffffffffffffffffffffffffffffffff1603620000ad5760006040517f1e4fbdf7000000000000000000000000000000000000000000000000000000008152600401620000a491906200032a565b60405180910390fd5b620000be816200014a60201b60201c565b5081600260006101000a81548173ffffffffffffffffffffffffffffffffffffffff021916908373ffffffffffffffffffffffffffffffffffffffff16021790555080600360006101000a81548173ffffffffffffffffffffffffffffffffffffffff021916908373ffffffffffffffffffffffffffffffffffffffff16021790555050505062000347565b60008060009054906101000a900473ffffffffffffffffffffffffffffffffffffffff169050816000806101000a81548173ffffffffffffffffffffffffffffffffffffffff021916908373ffffffffffffffffffffffffffffffffffffffff1602179055508173ffffffffffffffffffffffffffffffffffffffff168173ffffffffffffffffffffffffffffffffffffffff167f8be0079c531659141344cd1fd0a4f28419497f9722a3daafe3b4186f6b6457e060405160405180910390a35050565b600080fd5b600073ffffffffffffffffffffffffffffffffffffffff82169050919050565b6000620002408262000213565b9050919050565b620002528162000233565b81146200025e57600080fd5b50565b600081519050620002728162000247565b92915050565b6000620002858262000233565b9050919050565b620002978162000278565b8114620002a357600080fd5b50565b600081519050620002b7816200028c565b92915050565b600080600060608486031215620002d957620002d86200020e565b5b6000620002e98682870162000261565b9350506020620002fc86828701620002a6565b92505060406200030f86828701620002a6565b9150509250925092565b620003248162000233565b82525050565b600060208201905062000341600083018462000319565b92915050565b610cdb80620003576000396000f3fe608060405234801561001057600080fd5b50600436106100625760003560e01c80630fc63d10146100675780635f64b55b146100855780635fd601a8146100a3578063715018a6146100bf5780638da5cb5b146100c9578063f2fde38b146100e7575b600080fd5b61006f610103565b60405161007c91906106a4565b60405180910390f35b61008d610129565b60405161009a91906106a4565b60405180910390f35b6100bd60048036038101906100b8919061088d565b61014f565b005b6100c761040f565b005b6100d1610423565b6040516100de9190610933565b60405180910390f35b61010160048036038101906100fc919061094e565b61044c565b005b600260009054906101000a900473ffffffffffffffffffffffffffffffffffffffff1681565b600360009054906101000a900473ffffffffffffffffffffffffffffffffffffffff1681565b6101576104d2565b60018560405161016791906109ec565b908152602001604051809103902060009054906101000a900460ff16156101c3576040517f08c379a00000000000000000000000000000000000000000000000000000000081526004016101ba90610a60565b60405180910390fd5b6000821180156101d35750600081115b610212576040517f08c379a000000000000000000000000000000000000000000000000000000000815260040161020990610af2565b60405180910390fd5b600081836102209190610b41565b9050600260009054906101000a900473ffffffffffffffffffffffffffffffffffffffff1673ffffffffffffffffffffffffffffffffffffffff166323b872dd8686846040518463ffffffff1660e01b815260040161028193929190610b92565b6020604051808303816000875af11580156102a0573d6000803e3d6000fd5b505050506040513d601f19601f820116820180604052508101906102c49190610c01565b50600360009054906101000a900473ffffffffffffffffffffffffffffffffffffffff1673ffffffffffffffffffffffffffffffffffffffff166323b872dd8587856040518463ffffffff1660e01b815260040161032493929190610b92565b6020604051808303816000875af1158015610343573d6000803e3d6000fd5b505050506040513d601f19601f820116820180604052508101906103679190610c01565b506001808760405161037991906109ec565b908152602001604051809103902060006101000a81548160ff0219169083151502179055508373ffffffffffffffffffffffffffffffffffffffff168573ffffffffffffffffffffffffffffffffffffffff167fadb0b6c97f69b81bf3aaf3f4549ce365fc8f40c25b1cd88a7bad4cda9b8a5e148886866040516103ff93929190610c67565b60405180910390a3505050505050565b6104176104d2565b6104216000610559565b565b60008060009054906101000a900473ffffffffffffffffffffffffffffffffffffffff16905090565b6104546104d2565b600073ffffffffffffffffffffffffffffffffffffffff168173ffffffffffffffffffffffffffffffffffffffff16036104c65760006040517f1e4fbdf70000000000000000000000000000000000000000000000000000000081526004016104bd9190610933565b60405180910390fd5b6104cf81610559565b50565b6104da61061d565b73ffffffffffffffffffffffffffffffffffffffff166104f8610423565b73ffffffffffffffffffffffffffffffffffffffff16146105575761051b61061d565b6040517f118cdaa700000000000000000000000000000000000000000000000000000000815260040161054e9190610933565b60405180910390fd5b565b60008060009054906101000a900473ffffffffffffffffffffffffffffffffffffffff169050816000806101000a81548173ffffffffffffffffffffffffffffffffffffffff021916908373ffffffffffffffffffffffffffffffffffffffff1602179055508173ffffffffffffffffffffffffffffffffffffffff168173ffffffffffffffffffffffffffffffffffffffff167f8be0079c531659141344cd1fd0a4f28419497f9722a3daafe3b4186f6b6457e060405160405180910390a35050565b600033905090565b600073ffffffffffffffffffffffffffffffffffffffff82169050919050565b6000819050919050565b600061066a61066561066084610625565b610645565b610625565b9050919050565b600061067c8261064f565b9050919050565b600061068e82610671565b9050919050565b61069e81610683565b82525050565b60006020820190506106b96000830184610695565b92915050565b6000604051905090565b600080fd5b600080fd5b600080fd5b600080fd5b6000601f19601f8301169050919050565b7f4e487b7100000000000000000000000000000000000000000000000000000000600052604160045260246000fd5b610726826106dd565b810181811067ffffffffffffffff82111715610745576107446106ee565b5b80604052505050565b60006107586106bf565b9050610764828261071d565b919050565b600067ffffffffffffffff821115610784576107836106ee565b5b61078d826106dd565b9050602081019050919050565b82818337600083830152505050565b60006107bc6107b784610769565b61074e565b9050828152602081018484840111156107d8576107d76106d8565b5b6107e384828561079a565b509392505050565b600082601f830112610800576107ff6106d3565b5b81356108108482602086016107a9565b91505092915050565b600061082482610625565b9050919050565b61083481610819565b811461083f57600080fd5b50565b6000813590506108518161082b565b92915050565b6000819050919050565b61086a81610857565b811461087557600080fd5b50565b60008135905061088781610861565b92915050565b600080600080600060a086880312156108a9576108a86106c9565b5b600086013567ffffffffffffffff8111156108c7576108c66106ce565b5b6108d3888289016107eb565b95505060206108e488828901610842565b94505060406108f588828901610842565b935050606061090688828901610878565b925050608061091788828901610878565b9150509295509295909350565b61092d81610819565b82525050565b60006020820190506109486000830184610924565b92915050565b600060208284031215610964576109636106c9565b5b600061097284828501610842565b91505092915050565b600081519050919050565b600081905092915050565b60005b838110156109af578082015181840152602081019050610994565b60008484015250505050565b60006109c68261097b565b6109d08185610986565b93506109e0818560208601610991565b80840191505092915050565b60006109f882846109bb565b915081905092915050565b600082825260208201905092915050565b7f547261646520616c726561647920736574746c65640000000000000000000000600082015250565b6000610a4a601583610a03565b9150610a5582610a14565b602082019050919050565b60006020820190508181036000830152610a7981610a3d565b9050919050565b7f507269636520616e6420616d6f756e74206d75737420626520706f736974697660008201527f6500000000000000000000000000000000000000000000000000000000000000602082015250565b6000610adc602183610a03565b9150610ae782610a80565b604082019050919050565b60006020820190508181036000830152610b0b81610acf565b9050919050565b7f4e487b7100000000000000000000000000000000000000000000000000000000600052601160045260246000fd5b6000610b4c82610857565b9150610b5783610857565b9250828202610b6581610857565b91508282048414831517610b7c57610b7b610b12565b5b5092915050565b610b8c81610857565b82525050565b6000606082019050610ba76000830186610924565b610bb46020830185610924565b610bc16040830184610b83565b949350505050565b60008115159050919050565b610bde81610bc9565b8114610be957600080fd5b50565b600081519050610bfb81610bd5565b92915050565b600060208284031215610c1757610c166106c9565b5b6000610c2584828501610bec565b91505092915050565b6000610c398261097b565b610c438185610a03565b9350610c53818560208601610991565b610c5c816106dd565b840191505092915050565b60006060820190508181036000830152610c818186610c2e565b9050610c906020830185610b83565b610c9d6040830184610b83565b94935050505056fea2646970667358221220030fe2fa89a80e0dc2270b1a2cc8adda1925e92151b10fe1ba8445778668d38364736f6c63430008140033",
  "linkReferences": {},
  "deployedLinkReferences": {}
}